:020000040800F2
:10000000A80500200D02000847170008BD130008CE
:1000100045170008F5020008051900080000000057
:100020000000000000000000000000004B17000866
:10003000F702000800000000491700084D170008EB
:1000400027020008270200082702000827020008EC
:1000500027020008270200082702000827020008DC
:1000600027020008270200082702000827020008CC
:1000700027020008270200082702000827020008BC
:1000800027020008270200082702000827020008AC
:10009000270200082702000827020008270200089C
:1000A000270200082702000827020008270200088C
:1000B000270200082702000827020008270200087C
:1000C000270200082702000827020008270200086C
:1000D000270200082702000827020008270200085C
:1000E000270200082702000827020008270200084C
:1000F000270200082702000827020008270200083C
:10010000270200082702000827020008270200082B
:10011000270200082702000827020008270200081B
:10012000270200082702000827020008270200080B
:1001300027020008270200082702000827020008FB
:1001400027020008270200082702000827020008EB
:1001500027020008270200082702000827020008DB
:1001600027020008270200082702000827020008CB
:1001700027020008270200082702000800000000EC
:1001800027020008270200082702000827020008AB
:10019000270200082702000827020008270200089B
:1001A000270200082702000827020008270200088B
:1001B000270200082702000827020008270200087B
:1001C000270200082702000800000000270200089C
:1001D000270200082702000827020008270200085B
:1001E000270200082702000827020008270200084B
:1001F0002702000827020008DFF80CD000F068F89A
:100200000048004725190008A80500200648804737
:1002100006480047FEE7FEE7FEE7FEE7FEE7FEE7EB
:10022000FEE7FEE7FEE7FEE7D9170008F901000840
:100230002DE9F05F0546002092469B46884606461B
:10024000814640241BE0284641464746224600F0AE
:100250002FF853465A46C01A914110D311461846FA
:10026000224600F016F82D1A67EB01084F46224689
:100270000120002100F00DF817EB00094E41201E6F
:10028000A4F10104DFDC484631462A464346BDE876
:10029000F09F202A04DB203A00FA02F10020704788
:1002A0009140C2F1200320FA03F3194390407047B4
:1002B000202A04DB203A21FA02F00021704721FABB
:1002C00002F3D040C2F12002914008431946704722
:1002D000064C074D06E0E06840F0010394E8070093
:1002E00098471034AC42F6D3FFF78AFF901A000803
:1002F000B01A0008FEE770477047000070B504466A
:1003000000F03CF9B4F1FF3F054602D00448007804
:10031000044400F033F9401BA042FAD370BD000042
:10032000980000202DE9F84F8F4E002201274FF052
:1003300003094FF00F0800BF0B6807FA02FC03EA3D
:100340000C03634540F00A814C68022C18BF122C44
:1003500013D14FEAD204D1F810B04FEA427A00EB41
:100360008404256A4FEADA6A08FA0AFE0BFA0AFAE6
:1003700025EA0E054AEA0505256291F804B04FEA20
:100380004204D0F800A00BF0030B09FA04F50BFAB5
:1003900004FB2AEA050A4BEA0A0AC0F800A0D1F8D1
:1003A00004A0BAF1010F18BFBAF1020F05D0BAF1DB
:1003B000110F18BFBAF1120F19D1D0F808A0D1F857
:1003C0000CB02AEA050A0BFA04FB4BEA0A0AC0F849
:1003D00008A0D0F804A091F804B02AEA0C0CCBF3E2
:1003E000001B0BFA02FA4AEA0C0CC0F804C0D0F861
:1003F0000CC0D1F808A02CEA050C0AFA04F444EA6F
:100400000C0CC0F80CC0D1F804C01CF0805F7DD08B
:10041000356822F0030C4FEA827445F4804535605C
:100420004FEA147435680CF1804C0CF5983C05F4D7
:100430008045009508FA04FADCF80858A0F1804BD2
:10044000BBF5003B25EA0A0508BF4FF0000A48D07B
:10045000A0F1804ABAF5013A08BF4FF0010A40D036
:10046000A0F1804ABAF5023A08BF4FF0020A38D02C
:10047000A0F1804ABAF5033A08BF4FF0030A30D022
:10048000A0F1804ABAF5043A08BF4FF0040A28D018
:10049000A0F1804ABAF5053A08BF4FF0050A20D00E
:1004A000A0F1804ABAF5063A08BF4FF0060A18D004
:1004B000A0F1804ABAF5073A08BF4FF0070A10D0FA
:1004C000A0F1804ABAF5083A08BF4FF0080A08D0F0
:1004D000A0F1804ABAF5093A0CBF4FF0090A4FF073
:1004E0000A0A0AFA04FA214C4AEA0505CCF8085827
:1004F0004D68D4F800C015F4803F2CEA030C18BFF7
:100500004CEA030C1A4DC4F800C000E026E04C6829
:10051000D5F800C014F4003F2CEA030C18BF4CEAD5
:10052000030CDFF850A0C5F800C04C68DAF800C032
:1005300014F4801F2CEA030C18BF4CEA030C0E4C79
:10054000CAF800C04D68D4F800C015F4001F2CEAAA
:10055000030C18BF4CEA030CC4F800C0521C102A4C
:10056000FFF4EAAEBDE8F88F44380240003C014099
:10057000043C0140083C01400C3C014001488068BB
:1005800070470000980000200248816802781144FA
:100590008160704798000020032010B500F072F8C9
:1005A000002000F005F800F023F8002010BD000046
:1005B00070B50D4D04464FF47A700C4A29781268D4
:1005C000B0FBF1F0B2FBF0F000F074FB48B9102C76
:1005D00007D200222146501E00F024F800206C6053
:1005E00070BD012070BD000098000020A400002014
:1005F0000A4881B0016841F080510160006800F054
:10060000805000900648016841F480410160006814
:1006100000F48040009001B0704700004038024074
:1006200044380240164B30B41B68C3F30223C3F1B5
:10063000070CBCF1040F88BF4FF0040C1C1D072CE5
:1006400034BF0023DB1E012404FA0CFC04FA03F57A
:10065000ACF101042140A5F1010C99400CEA020221
:10066000114300284FEA0111B8BF00F00F0000F15C
:10067000E020ACBF80F8001480F8141D30BC704737
:100680000CED00E0074900F007004FF6FF030A6891
:100690001A4042EA002040F0FD7040F0806008609F
:1006A000704700000CED00E01C4838B5016841F0CF
:1006B0008051016000681A4D00F080500090286859
:1006C00040F480302860FFF759FF0446686810F452
:1006D000803F09D1FFF752FF001BB0F57A7F15D894
:1006E000686810F4803FF5D0286840F40030286036
:1006F000FFF744FF0446686810F4003F0CD100BFC8
:10070000FFF73CFF001BB0F57A7F01D9032038BD0D
:10071000686810F4003FF3D0002038BD4038024034
:1007200000700040002804BF012070472DE9F04709
:10073000DFF89C8104460E46D8F8000000F00F0058
:10074000B0420CD2D8F8000020F00F003043C8F8B7
:100750000000D8F8000000F00F00B04265D120681A
:100760005C4D10F0020F14D010F0040F03D0286875
:1007700040F4E0502860207810F0080F03D028687B
:1007800040F460402860A068296821F0F001084327
:100790002860207810F0010F34D060684E4901289D
:1007A00020D00968022822D011F0020F3DD029681C
:1007B00021F0030108432860FFF7E0FE296807469F
:1007C000606801F00C01B1EB800F18BF41F288396D
:1007D00018D000BFFFF7D2FEC01B48450BD903203D
:1007E000BDE8F087096811F4003FE0D11DE011F089
:1007F000007FDCD119E06168286800F00C00B0EBE4
:10080000810FE7D1D8F8000000F00F00B0420FD9F7
:10081000D8F8000020F00F003043C8F80000D8F8E6
:10082000000000F00F00B04202D00120BDE8F087C8
:10083000207810F0040F05D0E068296821F4E05119
:1008400008432860207810F0080F06D02069296836
:1008500021F4604141EAC00028602048296811F075
:100860000C0226D01E49042A08BF084621D0082AB7
:100870001FD11C4C2268236802F03F0213F4800F42
:1008800008D020680023C0F38810A0FB0101FFF707
:10089000CFFC07E021680023C1F38811A1FB000110
:1008A000FFF7C6FC2168C1F30141491C4900B0FBB8
:1008B000F1F029680C4AC1F30311515CC8400B499F
:1008C00008600020FFF774FE0020BDE8F0870000FC
:1008D000003C024008380240003802400024F40086
:1008E00040787D0104380240801A0008A4000020EE
:1008F0002DE9F84F04004FF0000B00F0C88120787C
:10090000DFF89093E44D10F0010F5DD0D9F80000AE
:1009100000F00C0004280BD0D9F8000000F00C0007
:1009200008280ED105F10400006810F4800F08D0EB
:10093000286810F4003F47D06068002800F0A781C5
:1009400042E06068B0F5803F04BF286840F4803022
:100950000AD010B1B0F5A02F11D0286820F4803053
:100960002860286820F4802028606068D0B1FFF7F4
:1009700005FE0646286810F4003F08D024E02868E9
:1009800040F480202860286840F48030ECE7FFF7CE
:10099000F5FD801B642800F23281286810F4003FC6
:1009A000F5D011E0FFF7EAFD0646286810F4003F95
:1009B0000AD000BFFFF7E2FD801B642800F21F8110
:1009C000286810F4003FF5D1207810F0020F4CD0C9
:1009D000D9F8000010F00C0F19D0D9F8000000F081
:1009E0000C00082804D1AD48006810F4800F0ED028
:1009F000E0680028286824D040F001002860FFF754
:100A0000BDFD0646286810F0020F09D011E02868E5
:100A100010F0020F1CBFE06801280AD000F037B9BF
:100A2000FFF7ACFD801B02287ED8286810F0020F6B
:100A3000F6D02069296821F0F80141EAC000286059
:100A400013E020F001002860FFF798FD06462868B3
:100A500010F0020F09D000BFFFF790FD801B0228A5
:100A600062D8286810F0020FF6D1207810F0080F35
:100A70002BD08B4F60690028386813D040F00100FC
:100A80003860FFF77BFD0646386810F0020F1CD176
:100A9000FFF774FD801B022846D8386810F0020F5B
:100AA000F6D012E020F001003860FFF767FD06463F
:100AB000386810F0020F08D0FFF760FD801B022895
:100AC00032D8386810F0020FF6D1207810F0040FF9
:100AD0007AD0DFF8D081D8F8000010F0805F0CD118
:100AE000D8F8000040F08050C8F80000D8F80000A6
:100AF0004FF0010B00F0805000906B4F386810F4FD
:100B0000807F16D1386840F480703860FFF736FD7A
:100B10000646386810F4807F0BD100BFFFF72EFD2A
:100B2000801B64286BD800E069E0386810F4807F8F
:100B3000F4D0A0685D4E012804BF306840F0010089
:100B400009D008B1052813D0306820F001003060CA
:100B5000306820F004003060A06841F2883AC8B1E3
:100B6000FFF70CFD0746306810F0020F08D022E0B6
:100B7000306840F004003060306840F00100EAE77F
:100B8000FFF7FCFCC01B504539D8306810F0020F4D
:100B9000F6D010E0FFF7F2FC0746306810F0020FC5
:100BA00009D000BFFFF7EAFCC01B504527D83068CA
:100BB00010F0020FF6D1BBF1000F05D0D8F80000FD
:100BC00020F08050C8F80000A069E8B3D9F8001000
:100BD00001F00C0108295AD00228286820F0807002
:100BE00028600FD0FFF7CAFC0446286810F0007F89
:100BF0004AD000BFFFF7C2FC001B022840D90320E7
:100C0000BDE8F88FFFF7BAFC0646286810F0007FB1
:100C100009D000BFFFF7B2FC801B0228EFD828687C
:100C200010F0007FF6D1D4E909C3D4E90701204AC6
:100C30005E0894F82C30084394F8304002EB0642EA
:100C400042EA8C11014300E01EE0144841EA0361CE
:100C500041EA04710160286840F080702860FFF765
:100C60008DFC0446286810F0007F0DD1FFF786FC4C
:100C7000001B0228C3D8286810F0007FF6D003E0DC
:100C8000286810F0007FB5D10020BDE8F88F012062
:100C9000BDE8F88F083802400038024004380240AE
:100CA0007438024040380240007000407038024002
:100CB0000000FFFF401EB0F1807F24BF012070477D
:100CC0004FF0E0214861F020034A82F8140D002023
:100CD000072288610A6170470FE000E090F83C202D
:100CE000012A04BF022070472DE9F001012280F89B
:100CF0003C20D1E90252D1E90083D1E904C422F4B5
:100D000040720E8B2A438D6A22F480621A43036874
:100D100022F4006242EA080222F4805242EA0C0203
:100D200022F4005242EA040222F4804242EA05021E
:100D3000A3F1804722F47022B7F5803742EA0642D9
:100D40001CBFA3F1804CBCF5823C0DD1B1F824C08E
:100D500022F47005D1E9074245EA0C5121F0807177
:100D6000214321F000710A435A64002180F83C10AD
:100D7000BDE8F0010846704790F83C20012A04BF06
:100D80000220704770B44FF0010C80F83CC0022282
:100D900080F83D2002685368A2F18044B4F58034A5
:100DA00094681CBFA2F18045B5F5823503D14D682A
:100DB00023F470032B430E6823F070038D683343D4
:100DC000536024F08001002402682943916080F878
:100DD0003DC080F83C40204670BC704770B586B07E
:100DE00040490025022400950126019502950395AE
:100DF00004950268A2F18043B3F5803320D03A48CD
:100E0000B2F1804F4DD0A2F18043B3F5806327D07B
:100E1000B2EBF0401CBF06B070BD086840F008009F
:100E2000086008686946049400F0080005904FF4D3
:100E30007040CDE900042D48FFF774FA06B070BD8C
:100E4000086840F01000086008686946049600F0E1
:100E5000100005904FF4D440CDE900042448EBE79E
:100E60000A6842F001020A600A6802F00102059273
:100E70000A6842F004020A600968049401F004015F
:100E800005914021CDE900146946FFF74BFA4FF474
:100E900060700090CDE9014516486946CDE90354DC
:100EA000CAE70A6842F001020A600A6802F0010219
:100EB00005920A6842F002020A600968049601F08D
:100EC0000201059148F20C01CDE900146946FFF7D3
:100ED00029FA08200090CDE9014507486946CDE987
:100EE0000356A9E73038024000000240000C0240DF
:100EF00000100240000802400004024090F83C301C
:100F0000012B04BF022070472DE9F007012480F86F
:100F10003C40022380F83D300C2AC44BDFF810C35C
:100F200000F0DD8006DC6AB1042A4ED0082A7DD0AC
:100F300000F072B9102A00F00781142A00F03881FD
:100F400000F06AB90268156A9A4225F00105156237
:100F5000166A5568976926F00206D1F80890D1F80C
:100F6000008027F0730727F4803749EA060648EA2D
:100F7000070718BF624507D1D1F80C8026F0080694
:100F800048EA060626F004069A4218BF624507D1D1
:100F900025F44073D1E9055C45EA03034CEA0305F7
:100FA000556097614B68536316620268936943F01A
:100FB000080393610268936923F004039361026854
:100FC0000969936943EA010143E00268156A9A429C
:100FD00025F010051562176A5568966927F02008F4
:100FE000D1F808A0D1F8009026F4E64727F08077E2
:100FF00048EA0A1647EA092718BF624507D1D1F81F
:101000000C8026F0800646EA081626F040069A4232
:1010100018BF624507D125F44063D1E9055C43EA76
:10102000850343EA8C055560976100E014E04B6846
:10103000936316620268936943F4006393610268E4
:10104000936923F48063936102680969936943EAB1
:101050000121916100F0E0B80268156A9A4225F416
:1010600080751562176A5568D66927F40078D1F83B
:1010700008A026F07307D1F8009027F4803748EADB
:101080000A2649EA070718BF624507D1D1F80C8044
:1010900026F4006646EA082626F480669A4218BFBF
:1010A000624507D125F44053D1E9055C43EA0513B5
:1010B00043EA0C155560D7614B68D363166202682A
:1010C000D36943F00803D3610268D36923F00403B2
:1010D000D36102680969D36943EA010132E0026819
:1010E000156A9A4225F480531362156A5368D669CB
:1010F00025F40055D1F808800F6826F4E64626F05E
:10110000807645EA083546EA072618BF624505D1CC
:10111000D1F814C023F4804343EA8C135360D661A2
:101120004B68136415620268D36943F40063D361AA
:101130000268D36923F48063D36102680969D369C3
:1011400043EA0121D16167E00268156A25F4803520
:101150001562176A5568566D9A42B1F8089027F4DF
:10116000003726F07003D1F8008023F4803347EA7B
:10117000094648EA030318BF624504D14F6925F4C4
:10118000803C4CEA0725556053654B6893651662B1
:101190000268536D43F0080353650268536D23F0F2
:1011A0000403536502680969536D43EA010132E0A3
:1011B0000268156A25F480151562176A5568566D20
:1011C0009A42B1F8089027F40017D1F8008026F46D
:1011D000E04323F0807347EA095643EA082318BF27
:1011E000624504D14F6925F4802C4CEA872555606F
:1011F00053654B68D36516620268536D43F4006310
:1012000053650268536D23F480635365026809696E
:10121000536D43EA012151654FF0000180F83D40D4
:1012200080F83C100846BDE8F00770470000014018
:1012300000040140002804BF0120704710B5044697
:1012400090F83D0028B9002084F83C00204600F0CA
:101250000DF8022084F83D002068211D00F0ECFA12
:10126000012084F83D00002010BD0000016881B01D
:10127000A1F18040B0F5803008BF174823D017484F
:10128000B1F1804F1FD0A1F18042B2F5806210D041
:10129000A1F18042B2F500621CBF01B07047016845
:1012A00041F004010160006800F00400009001B00A
:1012B0007047016841F002010160006800F002001F
:1012C000009001B07047016841F0010101600068C1
:1012D00000F00100F4E700004438024040380240CA
:1012E0000268012301F01F0103FA01F1136A8B4325
:1012F0001362136A194311620168A1F18042B2F5C9
:1013000080321CBFA1F18042B2F5823203D14A6C17
:1013100042F400424A640068074982681140062985
:1013200018BFB1F5803F03D0016841F001010160B1
:101330004FF0000070470000070001004DF8044D19
:101340000268012301F01F014FF0000C146A0CFA2F
:1013500001FC03FA01F124EA01011162116A41EA78
:101360000C011162016841F2111240F2444CA1F1EA
:101370008044B4F580341CBFA1F18044B4F58234BC
:101380000AD10C6A144204BF0C6A14EA0C0F03D190
:101390004C6C24F400444C6401680C6A144204BF91
:1013A0000A6A12EA0C0F03D10A6822F001020A60ED
:1013B00080F83D3000205DF8044B7047FEE70000E8
:1013C000154881B0016841F001010160016801F038
:1013D00001010091016841F010010160016801F014
:1013E00010010091016841F008010160016801F0FD
:1013F00008010091016841F004010160016801F0F9
:1014000004010091016841F002010160006800F0F0
:101410000200009001B070473038024010B596B01D
:101420003E48002440F2E7310F223B4B14941294C3
:1014300013940094019402940394049405940694E4
:101440000794089409940A940B940C940D940E94A8
:101450000F9410941194C0E90241046144618461C5
:10146000C0E90032FFF7E6FE002818BFFEF744FF90
:10147000129412A9294813941494FFF77DFC0028B4
:1014800018BFFEF739FF6020009063212348CDE9A3
:101490000114002269460394049405940694FFF70E
:1014A0002DFD002818BFFEF727FF04221B486946C0
:1014B000FFF724FD002818BFFEF71EFF082217487B
:1014C0006946FFF71BFD002818BFFEF715FF0C2229
:1014D00012486946FFF712FD002818BFFEF70CFFFF
:1014E0004FF4005007940894099401030A94CDE93D
:1014F0000B40CDE90E41094807A90D9410941194B1
:10150000FFF7ECFB002818BFFEF7F6FE0348FFF7D5
:1015100065FC16B010BD000000000140A8000020CE
:1015200010B58AB02A48002440F2E7310F22009417
:101530004FF080430194029403940494059406941C
:10154000079408940994C0E9024104618461C0E9E8
:101550000032FFF76FFE002818BFFEF7CDFE0094A3
:1015600069461B480294FFF707FC002818BFFEF7E6
:10157000C3FE6020039063211548CDE904140022C6
:10158000079403A9FFF7BAFC002818BFFEF7B4FEC2
:1015900004220F4803A9FFF7B1FC002818BFFEF78B
:1015A000ABFE08220A4803A9FFF7A8FC002818BFD1
:1015B000FEF7A2FE0C22064803A9FFF79FFC0028B5
:1015C00018BFFEF799FE0248FFF708FC0AB010BDED
:1015D000E800002010B58AB02B48002440F2E73123
:1015E0000F22284B009401940294039404940594D0
:1015F0000694079408940994C0E902410461846147
:10160000C0E90032FFF716FE002818BFFEF774FE8F
:10161000009469461C480294FFF7AEFB002818BFEF
:10162000FEF76AFE6020039063211748CDE9041499
:101630000022079403A9FFF761FC002818BFFEF7FA
:101640005BFE0422104803A9FFF758FC002818BFCE
:10165000FEF752FE08220C4803A9FFF74FFC0028B2
:1016600018BFFEF749FE0C22074803A9FFF746FC06
:10167000002818BFFEF740FE0348FFF7AFFB0AB093
:1016800010BD0000000400402801002010B58AB001
:101690002B48002440F2E7310F22284B009401949C
:1016A000029403940494059406940794089409946E
:1016B000C0E9024104618461C0E90032FFF7BAFD6C
:1016C000002818BFFEF718FE009469461C480294D3
:1016D000FFF752FB002818BFFEF70EFE60200390B4
:1016E00063211748CDE904140022079403A9FFF7EA
:1016F00005FC002818BFFEF7FFFD0422104803A9CF
:10170000FFF7FCFB002818BFFEF7F6FD08220C4887
:1017100003A9FFF7F3FB002818BFFEF7EDFD0C222D
:10172000074803A9FFF7EAFB002818BFFEF7E4FD0E
:101730000348FFF753FB0AB010BD0000000800404B
:1017400068010020FEE7704770477047FEF71CBF36
:1017500030B593B01E48002508950D9507950B955B
:10176000129501950295039504950595016841F040
:1017700080510160006800F08050009015480168B9
:1017800041F44041016000680224102106940822BF
:101790000C94D8230E9200F440400090CDE90F3411
:1017A00001201194CDE9090106A8FFF7A1F8FEF781
:1017B0007BFFE20203954FF4A0510F20CDE9041204
:1017C000CDE90104072101A8FEF7ACFF13B030BD3D
:1017D0004038024000700040124A30B4124813688A
:1017E0000021DFF848C043F4700313600468031D50
:1017F0000F4A44F001040460CCF8001004680CF1B6
:10180000040C24F41025D40525F0807505601A60B9
:101810000368084A23F480230360CCF800101460A6
:1018200030BC704788ED00E00038024008380240C4
:101830001030002408ED00E0F0B42D4B2D4C2E4D5F
:10184000984202682D4EDFF8B8C018BFB0F1804F43
:1018500007D0A04218BFA84203D0B04218BF6045CD
:1018600004D14F6822F0700247EA0202984218BF82
:10187000B0F1804F25D0A04218BFA84221D0B0427D
:1018800018BF60451DD0A0F18044B4F5A0341CBF42
:10189000A0F18044B4F5A23413D0A0F18044B4F593
:1018A000A4341CBFA0F18044B4F5C05409D0A0F109
:1018B0008044B4F5E0541CBFA0F18044B4F500545A
:1018C00003D1CC6822F4407222434C6922F080029A
:1018D0002243026098428A68C2620A68826212BF2A
:1018E0006045096901634FF001014161F0BC704737
:1018F000000001400004004000080040000C0040CF
:1019000000040140FEE702E008C8121F08C1002AD7
:10191000FAD170477047002001E001C1121F002A70
:10192000FBD17047FEF738FEFFF712FFFFF748FDC7
:10193000FFF774FDFFF7F4FDFFF74CFEFFF7A6FE7F
:1019400000F002F8FCE70000474810B59FED480B97
:1019500090ED001B484A494921EE000B1368BCEE8C
:10196000C00B10EE100A5863136810EE100A98634B
:101970001368D863126810640A6850630A68906339
:101980000A68D0630968086400213B48FFF7D6FC69
:1019900039480021FFF7A4FC37480421FFF7CEFCAB
:1019A00035480421FFF79CFC3220FEF7A7FC3248A3
:1019B0000821FFF7C3FC30480821FFF791FC2E48AF
:1019C0000C21FFF7BBFC2C480C21FFF789FC3220CF
:1019D000FEF794FC29480021FFF7B0FC27480021BE
:1019E000FFF77EFC25480421FFF7A8FC23480421CB
:1019F000FFF776FC3220FEF781FC20480821FFF734
:101A00009DFC1E480821FFF76BFC1C480C21FFF7CA
:101A100095FC1A480C21FFF763FC3220FEF76EFCA0
:101A200015480021FFF78AFC13480421FFF786FCC4
:101A300011480821FFF782FC0F480C21FFF77EFCBC
:101A40000E480021FFF77AFC0C480421FFF776FCD2
:101A50000A480821FFF772FCBDE8104007480C2136
:101A6000FFF76CBC000000008800002000000000B0
:101A70000000000000388F40A8000020280100204E
:101A8000000000000000000001020304060708092E
:101A9000B01A000800000020A80000000619000885
:101AA000581B0008A80000200005000016190008B7
:101AB0000000000000000000000000000000F03FF7
:101AC000000000000000F03F000000000000F03FB8
:101AD000000000000000F03F000000000000F03FA8
:101AE000000000000000F03F000000000000F03F98
:101AF000000000000000F03F000000000000F03F88
:101B0000000000000000F03F000000000000F03F77
:101B1000000000000000F03F000000000000F03F67
:101B2000000000000000F03F000000000000F03F57
:101B3000000000000000F03F000000000000E03F57
:101B40000000000000000000010000001000000084
:081B5000000000000024F40075
:04000005080001F9F5
:00000001FF
